:020000040000FA
:100000000C94DA000C9402010C9402010C9402018D
:100010000C9402010C9402010C9402010C94020154
:100020000C9402010C9402010C9402010C942C0912
:100030000C9402010C9402010C9402010C94020134
:100040000C94E2080C9402010C94B0080C948A08F9
:100050000C9402010C9402010C9402010C94020114
:100060000C9402010C94020100407A10F35A00A093
:10007000724E18090010A5D4E80000E87648170071
:1000800000E40B54020000CA9A3B000000E1F505B1
:10009000000080969800000040420F000000A086FB
:1000A00001000000102700000000E803000000002D
:1000B0006400000000000A000000000001000000D1
:1000C00000002C76D888DC674F0823DFC1DFAE59EB
:1000D000E1B1B796E5E3E453C63AE651997696E87E
:1000E000E6C28426EB898C9B62ED407C6FFCEFBC02
:1000F0009C9F40F2BAA56FA5F490055A2AF75C932D
:100100006B6CF9676DC11BFCE0E40D47FEF520E662
:10011000B500D0ED902E0300943577050080841E45
:10012000080000204E0A000000C80C333333330FA0
:10013000986E12831141EF8D2114893BE65516CF3D
:10014000FEE6DB18D1844B381BF77C1D901DA4BB49
:10015000E424203284725E228100C9F124ECA1E5FE
:100160003D27000000080002010000030407000012
:1001700000000000000000000000250028002B0007
:1001800000000000240027002A00040404040404E2
:100190000404020202020202030303030303010236
:1001A0000408102040800102040810200102040805
:1001B0001020E80911241FBECFEFD8E0DEBFCDBF6D
:1001C00011E0A0E0B1E0E4EAF8E202C005900D928F
:1001D000A83FB107D9F722E0A8EFB1E001C01D9216
:1001E000AF3CB207E1F710E0CAEDD0E004C02197C0
:1001F000FE010E943012C93DD107C9F70E94450A8D
:100200000C9450140C9400008F929F92AF92BF9266
:10021000FF920F931F93CF93DF93F090C8022BE0D0
:100220002F1508F44CC02091CA0208E512E0021B09
:10023000110927FD1395000F111F000F111F2091A9
:10024000C902C8E8D0E0C21BD10927FDD395CC0F65
:10025000DD1FCC0FDD1F4E010D2E000CAA08BB08C0
:100260009801012E000C440B550B281939094A0935
:100270005B09DC010E949A1024EB30E040E050E082
:100280000E947010820E931EA41EB51E8C169D0631
:100290002CF0E801801691060CF4E4012297CC0FB3
:1002A000DD1F2FB7F8948F2D90E0FC01EE0FFF1F9C
:1002B000E80FF91FED55FD4FD283C1832FBFDF91AA
:1002C000CF911F910F91FF90BF90AF909F908F9013
:1002D000089590E0FC01E256FE4F249186579E4F10
:1002E000FC018491882399F090E0880F991FFC010C
:1002F000E058FE4FA591B491FC01EA58FE4F85915C
:1003000094918FB7F894EC91E22BEC938FBF089502
:10031000AF92BF92CF92DF92EF92FF920F931F9313
:10032000CF93DF936C017B018B01040F151FEB0151
:100330005E01AE18BF08C017D10759F06991D60108
:10034000ED91FC910190F081E02DC6010995892B7A
:1003500079F7C501DF91CF911F910F91FF90EF9039
:10036000DF90CF90BF90AF900895FC01538D448DE6
:10037000252F30E0842F90E0821B930B541710F050
:10038000CF96089501970895FC01918D828D98175D
:1003900061F0A28DAE0FBF2FB11D5D968C91928D35
:1003A0009F5F9F73928F90E008958FEF9FEF089566
:1003B0002FB7F8948091020290910302A091040259
:1003C000B09105022FBF80930E0290930F02A0936D
:1003D0001002B093110286E092E00E94C40197FFE0
:1003E00026C02FB7F8948091020290910302A09149
:1003F0000402B09105022FBF40910E0250910F02EE
:100400006091100270911102841B950BA60BB70B23
:1004100040910A0250910B0260910C0270910D0202
:1004200084179507A607B707B0F28FEF9FEF0895DF
:10043000FC01918D828D981731F0828DE80FF11DAE
:10044000858D90E008958FEF9FEF0895FC01918DC9
:10045000228D892F90E0805C9F4F821B91098F73C2
:100460009927089586E092E00E94260221E0892BD8
:1004700009F420E0822F089580E090E0892B29F094
:100480000E94320281110C9400000895FC01A48D99
:10049000A80FB92FB11DA35ABF4F2C91848D90E0A6
:1004A00001968F739927848FA689B7892C93A08989
:1004B000B1898C91837080648C93938D848D981313
:1004C00006C00288F389E02D80818F7D80830895A6
:1004D000EF92FF920F931F93CF93DF93EC0181E094
:1004E000888F9B8D8C8D98131AC0E889F98980813B
:1004F00085FF15C09FB7F894EE89FF896083E8896E
:10050000F98980818370806480839FBF81E090E05F
:10051000DF91CF911F910F91FF90EF900895F62EEC
:100520000B8D10E00F5F1F4F0F731127E02E8C8D86
:100530008E110CC00FB607FCFACFE889F9898081CB
:1005400085FFF5CFCE010E944602F1CFEB8DEC0F77
:10055000FD2FF11DE35AFF4FF0829FB7F8940B8FE8
:10056000EA89FB8980818062CFCFCF93DF93EC0152
:10057000888D8823B9F0AA89BB89E889F9898C918B
:1005800085FD03C0808186FD0DC00FB607FCF7CF47
:100590008C9185FFF2CF808185FFEDCFCE010E9447
:1005A0004602E9CFDF91CF91089590E0FC01EE592A
:1005B000FE4F2491FC01E256FE4F3491FC01E657B8
:1005C000FE4FE491EE23C9F0222339F0233001F1EC
:1005D000A8F4213019F1223029F1F0E0EE0FFF1FCD
:1005E000EA58FE4FA591B4918FB7F894EC91611140
:1005F00026C030953E233C938FBF08952730A9F045
:100600002830C9F0243049F7809180008F7D03C0E5
:10061000809180008F7780938000DFCF84B58F77C3
:1006200084BDDBCF84B58F7DFBCF8091B0008F7709
:100630008093B000D2CF8091B0008F7DF9CF3E2B58
:10064000DACF3FB7F8948091FA019091FB01A09125
:10065000FC01B091FD0126B5A89B05C02F3F19F004
:100660000196A11DB11D3FBFBA2FA92F982F882732
:10067000BC01CD01620F711D811D911D42E0660F0D
:10068000771F881F991F4A95D1F708950F931F93DD
:10069000CF938C01C62F61E08C2F0E94D50261E0C0
:1006A0000130110509F460E083E08C0F0E94D5024F
:1006B00083EC90E00197F1F760E08C2FCF911F91D0
:1006C0000F910C94D50242E050E069E171E086E0C0
:1006D00092E00C948801CF93DF93FC014481558113
:1006E0006081718186E092E00E948801EC010E94A5
:1006F00063038C0F9D1FDF91CF910895CF93DF93FC
:10070000FC0101900020E9F73197AF01481B590B1C
:10071000BC0186E092E00E948801EC010E94630324
:100720008C0F9D1FDF91CF910895CF93DF93DC0154
:1007300014962D913C911597232B79F0FB01CD91C7
:10074000DC9160817181CE010E943614009729F0FE
:100750008C1B9D0BDF91CF9108958FEF9FEFFACF08
:100760000F931F93CF93DF93EC01888199810097BA
:1007700059F02A813B812617370730F081E0DF915D
:10078000CF911F910F9108958B016F5F7F4F0E9452
:100790005B13009759F0998388831B830A832C810C
:1007A0003D81232B59F7FC011082E8CF80E0E7CF91
:1007B000EF92FF920F931F93CF93DF936115710513
:1007C00041F480E0DF91CF911F910F91FF90EF9066
:1007D000089541155105B1F07B01EC010C811D819B
:1007E000040F151FB8010E94B003882351F328811C
:1007F00039818C819D81B701820F931F0E94211442
:100800001D830C8381E0DECFCF93DF93EC018881E1
:100810009981009711F00E94D212198218821D82CC
:100820001C821B821A82DF91CF910895EF92FF9272
:100830000F931F93CF93DF938C017B01EB01099002
:100840000020E9F72197C61BD70BBE010E94B00319
:10085000811109C0C801DF91CF911F910F91FF90C5
:10086000EF900C940404F801D583C483B701808110
:100870009181DF91CF911F910F91FF90EF900C9498
:1008800021140F931F93CF93DF93CDB7DEB76297F9
:100890000FB6F894DEBF0FBECDBF8C01CB01F801BF
:1008A0001182108213821282158214824AE0BE01E4
:1008B0006F5F7F4F0E94380DBE016F5F7F4FC80191
:1008C0000E94160462960FB6F894DEBF0FBECDBF2D
:1008D000DF91CF911F910F910895EF92FF920F93A7
:1008E0001F93CF93DF93CDB7DEB7A1970FB6F894E0
:1008F000DEBF0FBECDBF7C01CB01BA01F701118273
:10090000108213821282158214828E010F5F1F4F94
:1009100022E044E00E94F30C009789F0BC01C7017B
:100920000E941604A1960FB6F894DEBF0FBECDBF8D
:10093000DF91CF911F910F91FF90EF900895C70124
:100940000E940404EFCFCF93DF93EC01FB010190F1
:100950000020E9F73197AF01461B570B0E94D803DF
:10096000811103C0CE010E940404CE01DF91CF911A
:100970000895CF93DF93EC01FB01448155816081A1
:1009800071810E94D803811103C0CE010E9404042A
:10099000CE01DF91CF910895EF92FF920F931F93B5
:1009A000CF93DF93EC017B01198218821B821A829C
:1009B0001D821C82FB0101900020E9F731978F0115
:1009C000061B170BB8010E94B003811109C0CE01AC
:1009D000DF91CF911F910F91FF90EF900C94040441
:1009E0001D830C83B70188819981DF91CF911F917D
:1009F0000F91FF90EF900C942114AF92BF92CF9281
:100A0000DF92EF92FF920F931F93CF93DF936C01CE
:100A10005B017A0189012417350720F48F2D7901B4
:100A2000042F182F6BE171E0C6010E94CC04D501A0
:100A30001496CD91DC91EC16FD06E0F40C171D0721
:100A400008F4E801D501ED91FC911197EC0FFD1F21
:100A5000108110826D917C916E0D7F1DC601611514
:100A60007105A1F00E941604F50180819181C80FE3
:100A7000D91F1883C601DF91CF911F910F91FF906D
:100A8000EF90DF90CF90BF90AF9008950E94040444
:100A9000EBCFFC0180819181009711F00C94D21270
:100AA00008952F923F924F925F926F927F928F9212
:100AB0009F92AF92BF92CF92DF92EF92FF920F93ED
:100AC0001F93CF93DF93CDB7DEB7A3970FB6F894FC
:100AD000DEBF0FBECDBF9E8B8D8B788F6F8B498F06
:100AE0006091000270910102CE010D960E944104B6
:100AF0006091FE017091FF01CE0107960E944104B2
:100B00006CE171E0CE0101960E94CC04BE01695FE8
:100B10007F4FCE0101960E94B90462E871E00E9405
:100B2000A304BE01635F7F4F0E94B9040E946B0360
:100B3000CE0101960E944905CE0107960E94490503
:100B4000CE010D960E9449058091FE019091FF0112
:100B50006D897E89681B790B072E000C880B990B19
:100B60000E94C00F2B013C01809100029091010274
:100B70006F89788D681B790B072E000C880B990BF9
:100B80000E94C00F6B017C01AC019B01C301B2014B
:100B90000E941F1220E030E0A90118160CF0C7C116
:100BA000C701B6010E94B90F882309F4B3C1A70198
:100BB0009601C301B2010E9477114B015C0120E054
:100BC00030E0A9010E941F1220E030E040E05FE326
:100BD00087FD9BC1C501B4010E940B110E94E91160
:100BE0008B0120E030E0A901C701B6010E94B90FD6
:100BF00087FF95C12FEF3FEF3C8B2B8B20E030E040
:100C0000A901C301B2010E94B90F87FF8DC18FEF07
:100C10009FEF089F1001099F300C189F300C112482
:100C20008FE291E00E947E036F89788DCE010D9650
:100C30000E9441046D897E89CE0107960E9441047D
:100C400064E571E0CE0101960E94CC04BE01695FAB
:100C50007F4FCE0101960E94B90462E671E00E94C6
:100C6000A304BE01635F7F4F0E94B9040E946B031F
:100C7000CE0101960E944905CE0107960E944905C2
:100C8000CE010D960E9449056B897C89CE010D9697
:100C90000E944104B101CE0107960E94410466E61C
:100CA00071E0CE0101960E94CC04BE01695F7F4FC6
:100CB000CE0101960E94B90462E871E00E94A3048B
:100CC000BE01635F7F4F0E94B9040E946B03CE0197
:100CD00001960E944905CE0107960E944905CE0162
:100CE0000D960E944905398D632F70E0CE0107965D
:100CF0000E9441046EE671E0CE0101960E94CC0490
:100D0000BE01695F7F4FCE0101960E94B9040E9427
:100D10006B03CE0101960E944905CE0107960E9401
:100D20004905B701A601CE010D960E946D04B301DD
:100D3000A201CE0107960E946D046AE771E0CE0120
:100D400001960E94CC04BE01695F7F4FCE010196DF
:100D50000E94B90464E871E00E94A304BE01635FCD
:100D60007F4F0E94B9040E946B03CE0101960E943E
:100D70004905CE0107960E944905CE010D960E94B5
:100D80004905B801CE0107960E9441046FE871E061
:100D9000CE0101960E94CC04BE01695F7F4FCE0157
:100DA00001960E94B9040E946B03CE0101960E9435
:100DB0004905CE0107960E9449058FE291E00E9405
:100DC0007E0320E030E0A901C301B2010E941F129E
:100DD000181624F077FA709477F8709420E030E0D9
:100DE000A901C701B6010E941F12181624F0F7FAD4
:100DF000F094F7F8F094A7019601C301B2010E94A4
:100E00001F1218160CF0E3C04C8E5D8E6E8E7F8E16
:100E100037FCE2C081E090E09E8B8D8B8B899C89B2
:100E200097FDDFC021E030E0388F2F8B712C612CD3
:100E30002B893C8931952195310939A328A388272D
:100E40009927821993099BA38AA3B301072C000C4D
:100E5000880B990B0E94C00F2C8D3D8D4E8D5F8DA0
:100E60000E94B90F87FF38C00B891C8917FF02C089
:100E700008A119A1210137FE02C04AA05BA01B8F67
:100E80000A8F0415150514F45B8E4A8E6091FE01DD
:100E90007091FF01620D731D6D3B92E0790708F4BC
:100EA000A5C0CE0101960E94410467E971E0CE0120
:100EB00007960E94CC04BE016F5F7F4FCE0107965C
:100EC0000E94B9040E946B03CE0107960E94490557
:100ED000CE0101960E944905A3960FB6F894DEBF95
:100EE0000FBECDBFDF91CF911F910F91FF90EF907B
:100EF000DF90CF90BF90AF909F908F907F906F903A
:100F00005F904F903F902F900895C501B4010E94CB
:100F10000A1164CE1C8A1B8A01E010E06FCE81E0CA
:100F200090E09C8B8B8B6ACE81E090E072CEC30107
:100F3000B2010E94B90F312C212C01E010E088236E
:100F400049F1A3019201C701B6010E9477114B013B
:100F50005C0120E030E0A9010E941F1220E030E097
:100F600040E05FE387FD2BC0C501B4010E940B1177
:100F70000E94E9118B0120E030E0A901C301B20118
:100F80000E94B90F22242A94322C87FD03C0222408
:100F90002394312C20E030E0A901C701B6010E9462
:100FA000B90F87FF11C08FEF9FEF089F9001099F36
:100FB000300D189F300D11243C8B2B8B31CEC50189
:100FC000B4010E940A11D4CF81E090E0EECFCC8E24
:100FD000DD8EEE8EFF8E1CCF2FEF3FEF3E8B2D8BE5
:100FE0001DCF8FEF9FEF988F8F8B20CF60910002E6
:100FF000709101022B893C89620F731F693E33E0B7
:10100000730738F0CE0101960E94410467EA71E04F
:101010004ECF80910001998D981769F1992309F4B9
:101020006BC0811104C08AE590E00E9404010E9417
:1010300021034B015C0182E3C82ED12CE12CF12C61
:101040000E942103681979098A099B09683E734047
:1010500081059105A8F321E0C21AD108E108F10841
:1010600038EE830E33E0931EA11CB11CC114D104D1
:10107000E104F10429F7398D30930001F12CE12CC2
:101080008A8D9B8D8E159F0509F440C0E414F504EC
:10109000A4F462E070E08D899E890E9446038091ED
:1010A000FE019091FF012D893E892130310551F5D6
:1010B00001969093FF018093FE01E016F106A4F4DF
:1010C00063E070E08F89988D0E9446038091000252
:1010D000909101022F89388D21303105A9F40196B4
:1010E00090930102809300028BE097E20197F1F761
:1010F0003FEFE31AF30AC4CF882309F498CF90E0B6
:1011000080E093CF0197D5CF0197EACF8FEF681A90
:10111000780A9BCE1F920F920FB60F9211242F9335
:101120003F934F935F936F937F938F939F93AF936F
:10113000BF93EF93FF9386E092E00E944602FF91F7
:10114000EF91BF91AF919F918F917F916F915F913F
:101150004F913F912F910F900FBE0F901F901895B8
:101160001F920F920FB60F9211242F938F939F937C
:10117000EF93FF93E0911602F09117028081E091C6
:101180001C02F0911D0282FD1BC0908180911F0204
:101190008F5F8F7320912002821741F0E0911F0230
:1011A000F0E0EA5FFD4F958F80931F02FF91EF9172
:1011B0009F918F912F910F900FBE0F901F901895B8
:1011C0008081F4CF1F920F920FB60F9211242F93AC
:1011D0003F938F939F93AF93BF938091020290911F
:1011E0000302A0910402B09105023091F90123E0BD
:1011F000230F2D3758F50196A11DB11D2093F9013C
:101200008093020290930302A0930402B09305021C
:101210008091FA019091FB01A091FC01B091FD0138
:101220000196A11DB11D8093FA019093FB01A0933B
:10123000FC01B093FD01BF91AF919F918F913F91C0
:101240002F910F900FBE0F901F90189526E8230F37
:101250000296A11DB11DD2CF1F920F920FB60F9211
:1012600011242F933F934F935F936F937F938F93AB
:101270009F93AF93BF93CF93DF93EF93FF938091AF
:10128000F801C091C702D0E087FF24C0109285000A
:10129000109284008091F8018F5F8093F801809113
:1012A000F801082E000C990B8C179D0724F48091EF
:1012B000F8018C30C4F180918400909185000496EF
:1012C00080349C4908F47AC0809184009091850014
:1012D000049676C08091F801082E000C990B8C17AB
:1012E0009D07C4F6E091F8018E2FEE0F990BFC01DB
:1012F000EE0FFF1FE80FF91FED55FD4F808186FFB0
:10130000C9CFE091F8018E2FEE0F990BFC01EE0F83
:10131000FF1FE80FF91FED55FD4F808160E08F73CF
:101320000E94D502B7CF2091840030918500E091D2
:10133000F8018E2FEE0F990BFC01EE0FFF1FE80F47
:10134000F91FED55FD4F81819281820F931F90937C
:10135000890080938800E091F8018E2FEE0F990BA1
:10136000FC01EE0FFF1FE80FF91FED55FD4F8081C7
:1013700086FF11C0E091F8018E2FEE0F990BFC0152
:10138000EE0FFF1FE80FF91FED55FD4F808161E063
:101390008F730E94D502FF91EF91DF91CF91BF91A2
:1013A000AF919F918F917F916F915F914F913F91FD
:1013B0002F910F900FBE0F901F90189580E49CE91D
:1013C00090938900809388008FEF8093F801E3CF9A
:1013D000109209021092080288EE93E0A0E0B0E0BB
:1013E00080930A0290930B02A0930C02B0930D021B
:1013F0008BE091E0909307028093060285EC90E0E9
:10140000909313028093120284EC90E09093150263
:101410008093140280EC90E0909317028093160260
:1014200081EC90E0909319028093180282EC90E096
:1014300090931B0280931A0286EC90E090931D0219
:1014400080931C0210921F0210922002109221021F
:10145000109222028091C7028C3098F491E0980F8C
:101460009093C7028093C80290E0FC01EE0FFF1F2B
:10147000E80FF91FED55FD4F88EB9BE092838183C8
:1014800008958FEF8093C8020895CF93DF93CDB76F
:10149000DEB768970FB6F894DEBF0FBECDBF789465
:1014A00084B5826084BD84B5816084BD85B5826069
:1014B00085BD85B5816085BD80916E00816080931A
:1014C0006E00109281008091810082608093810083
:1014D0008091810081608093810080918000816093
:1014E000809380008091B10084608093B1008091EE
:1014F000B00081608093B00080917A008460809316
:101500007A0080917A00826080937A0080917A00DC
:10151000816080937A0080917A00806880937A005D
:101520001092C10082E00E94690185E00E94690179
:1015300083E00E94690186E00E9469018091C802EF
:101540008C3008F050C081E10E9469018091C8028E
:10155000282F30E0F901EE0FFF1FE20FF31FED55CA
:10156000FD4F9081907C916190831092C9021092FE
:10157000CA022CE0622F0E942412829FB001112423
:1015800030E020E0AB01420F531FFA01EE0FFF1FC6
:10159000E40FF51FED55FD4F908196FD16C02F5FAE
:1015A0003F4F2C30310571F781110FC01092800030
:1015B00082E0809381001092850010928400B19A9D
:1015C00080916F00826080936F00E091C8028E2F3F
:1015D00090E0FC01EE0FFF1FE80FF91FED55FD4FE6
:1015E000808180648083E0911602F091170282E08E
:1015F0008083E0911202F09113021082E0911402B4
:10160000F09115028FEC808310921E02E0911A0275
:10161000F0911B0286E08083E0911802F09119029C
:10162000808180618083E0911802F09119028081AD
:1016300088608083E0911802F091190280818068AF
:101640008083E0911802F091190280818F7D808360
:1016500080E0C82E80E0D82E87EB91E00E947E03C8
:1016600086E092E00E942602892BD1F36BE171E0C3
:10167000CE0143960E94CC040E94D80197FD0CC075
:1016800089831A8241E050E0BE016F5F7F4FCE0137
:1016900043960E94D803F0CF60910002709101023E
:1016A000CE0101960E9441046091FE017091FF01FC
:1016B000CE0107960E94410469EC71E0CE010D96BF
:1016C0000E94CC04BE016D5E7F4FCE010D960E943C
:1016D000B90465ED71E00E94A30468ED71E00E9419
:1016E000A304BE01695F7F4F0E94B9046BEE71E0F5
:1016F0000E94A304BE016F5F7F4F0E94B9040E9445
:101700006B03CE010D960E944905CE0107960E94FB
:101710004905CE0101960E9449056DEE71E0CE01AA
:1017200001960E94CC044D815E818F89988D84172B
:10173000950770F08B899C89009751F069817A81B7
:101740006115710529F00E94281411E0892B09F018
:1017500010E0CE0101960E944905112309F428C129
:1017600061EF71E0CE0107960E94CC04BE01695F73
:101770007F4FCE0143960E9495038C0163EF71E089
:10178000CE010D960E94CC04BE01635F7F4FCE0157
:1017900043960E9495039801AC01BE016D5E7F4F98
:1017A000CE0101960E94FD04CE0101960E946B03BA
:1017B000CE0101960E944905CE010D960E94490571
:1017C000CE0107960E94490565EF71E0CE010796AC
:1017D0000E94CC04BE01695F7F4FCE0143960E94F8
:1017E00095038C0161EF71E0CE010D960E94CC044F
:1017F000BE01635F7F4FCE0143960E94950398011F
:10180000AC01BE016D5E7F4FCE0101960E94FD04CA
:10181000CE0101960E946B03CE0101960E944905FC
:10182000CE010D960E944905CE0107960E944905FA
:1018300061EF71E0CE0107960E94CC04BE01695FA2
:101840007F4FCE0143960E9495038C0163EF71E0B8
:10185000CE010D960E94CC04BE01635F7F4FCE0186
:1018600043960E949503AC014F5F5F4F9801BE0104
:101870006D5E7F4FCE0101960E94FD0489819A81A1
:10188000009709F48DC00E94110D8B01CE010196C5
:101890000E944905CE010D960E944905CE0107968A
:1018A0000E94490565EF71E0CE0107960E94CC04C5
:1018B000BE01695F7F4FCE0143960E9495037C0174
:1018C00061EF71E0CE010D960E94CC04BE01635F12
:1018D0007F4FCE0143960E949503AC014F5F5F4F4F
:1018E0009701BE016D5E7F4FCE0101960E94FD04FF
:1018F00089819A81009709F457C00E94110D7B01DC
:10190000CE0101960E944905CE010D960E9449051F
:10191000CE0107960E944905AF88B88C65EF71E04B
:10192000CE0107960E94CC04BE01695F7F4FCE01B5
:1019300043960E949503AC014F5F5F4F9501BE0136
:101940006D5E7F4FCE0101960E94FD0489819A81D0
:10195000812C912C5401009719F00E94110D4B011C
:10196000CE0101960E944905CE0107960E944905C5
:1019700041E0892809F440E0B701C8010E945105FF
:10198000CE0143960E944905C114D10409F464CEE6
:101990000E943202882309F45FCE0E9400005CCED0
:1019A00060E070E0CB0171CF60E070E0CB01A7CFC9
:1019B00040E070E060E08CE291E00E94510540E080
:1019C0006CE271E08CE291E00E94510540E06CE233
:1019D00071E090E080E00E94510540E070E060E03E
:1019E00090E080E0CBCFEF920F931F93CF93DF93E4
:1019F000E80134E047FD34E1042E000C550B57FF9D
:101A000003C0519541955109E32E022F242FAE01B9
:101A10000E94720DCE01DF91CF911F910F91EF9037
:101A200008951F93FC0199278827BC01E894119120
:101A30001032E9F3193010F01E30C8F31B3251F0A8
:101A40001D3249F4689406C00E94430D610F711D58
:101A5000811D911D119110531A30B0F33EF49095F1
:101A60008095709561957F4F8F4F9F4F1F9108957F
:101A7000BB274A3031F4992322F4BDE29095819539
:101A80009F4F0C94590D592F482F372F262F660F33
:101A9000771F881F991F660F771F881F991F620F76
:101AA000731F841F951F660F771F881F991F089546
:101AB000BB27FB015527AA27880F991FAA1FA41728
:101AC00010F0A41B83955051B9F7A05DAA3308F01C
:101AD000A95DA193009779F7B111B1931192CB0150
:101AE0000C94A90FA9E0B0E0E8E7FDE00C94A81081
:101AF0006A01F22EB02E102FFBE3AF2EA01608F4D1
:101B00001BE31F5F012F27E0AE014F5F5F4F0E9475
:101B1000D10EBC018981982F9970913009F43FC092
:101B20009BE2E1FC04C09E2D9170E0FC3AC05E2D6A
:101B30005071E82FE87083FF46C084E0911101C026
:101B400083E0EF2DE81B8F1508F0E0E0D6018E2F23
:101B500020E2552351F1992329F0D6019C93C60127
:101B600001966C0196012D5F3F4FE2FE24C08EE48A
:101B7000D6018C9391E411969C93119712968C93B5
:101B8000D9018E2F90E281111BC0E20FF32FF11DBE
:101B900010828EEF9FEF2996ECE00C94C4109DE22A
:101BA000C6CF90E2C4CF2D9381508111FCCFCE0ED1
:101BB000D11CE0E0D0CF8EE6D6018C9391E6DBCF4E
:101BC0009D938150E0CF482F447082FF3DC084E058
:101BD000911101C083E08F1510F4EF2DE81BD601A1
:101BE0008E2F20E2552309F1992329F0D6019C93E9
:101BF000C60101966C0196012D5F3F4FE2FE1BC0AE
:101C000089E4D6018C938EE411968C93119786E427
:101C100012968C93D9018E2F90E2882309F4B5CFC8
:101C20009D938150FACF2D9381508111FCCFCE0E20
:101C3000D11CE0E0D9CF89E6D6018C938EE61196CF
:101C40008C93119786E6E4CF9B0177FF02C030E0CA
:101C500020E0A1E0B0E0911102C0B0E0A0E0F90105
:101C60003196AE0FBF1F8B2C912CBB2009F461C0A5
:101C70005401EFEFAE1ABE0AAA0DBB1DFA161B06E1
:101C800019F014F04F2D4A1B511188C0E3FC59C0C4
:101C90007601A42FB0E2A1114FC0C40ED11C99232C
:101CA00009F45BC040E0D6011196F60190836D0106
:101CB000552309F448C0012F060F9A81582F5071FF
:101CC00084FF03C0913309F4015010160CF047C093
:101CD000093008F008E0EEE2FE2E5B01A01AB10820
:101CE00085019194819491082F3F320729F4D60100
:101CF000FC92F60131966F016217730794F1021797
:101D000013077CF5DB01A21BB30BAA24A394B12C0F
:101D1000AC0EBD1EAA0DBB1D11968C912150310930
:101D2000D601119628153905F4F0F60180836D016E
:101D3000DBCFB12CA12CA0CFF701B1937F01A15033
:101D4000AACF9111B0CFD601942F50E302C05D937A
:101D500091509111FCCFC40ED11C40E0ACCF01E0FA
:101D6000BACF80E3DBCF6217730731F4963388F480
:101D7000953311F4552369F0F6018083FD01842F1A
:101D800090E2811108C0A40FB11D1C9290E080E088
:101D900002CF81E3F1CF91938150F3CF911183CFA3
:101DA0008ACF283008F027E03327DA01990F311D58
:101DB00087FD916000966105710539F432602E5FF0
:101DC0003D9330E32A95E1F708959F3F30F0803846
:101DD0007105610509F03C5F3C5F3D93913008F06F
:101DE0008068911DDF93CF931F930F93FF92EF9223
:101DF000192F987F9695E92F96959695E90FFF27CD
:101E0000EE53FF4F99273327EE24FF24A701E70164
:101E100005900894079428F4360FE71EF81E491F12
:101E2000511D660F771F881F991F0694A1F7059013
:101E3000079428F4E70EF81E491F561FC11D770F9F
:101E4000881F991F661F0694A1F70590079428F430
:101E5000F80E491F561FC71FD11D880F991F661FF7
:101E6000771F0694A1F70590079420F4490F561F99
:101E7000C71FD81F990F661F771F881F0694A9F7E1
:101E800084911095177041F0D695C7955795479551
:101E9000F794E7941A95C1F7E8E6F0E06894159096
:101EA000159135916591959105907FE27395E118B3
:101EB000F10A430B560BC90BD009C0F7E10CF11E18
:101EC000431F561FC91FD01D7EF4703311F48A952D
:101ED000E6CFE894015030F0080F0AF4002702170B
:101EE00008F4202F2395022F7A3328F079E37D938D
:101EF0002A95E9F710C07D932A9589F6069497955F
:101F00006795379517951794E118F10A430B560B0F
:101F1000C90BD00998F023957E9173957A3308F018
:101F200070E37C932013B8F77E9170617D9330F05D
:101F3000839571E37D9370E32A95E1F71124EF9087
:101F4000FF900F911F91CF91DF91992787FD909579
:101F50000895DC01FC01672F71917723E1F7329737
:101F600004C07C916D9370836291AE17BF07C8F374
:101F700008950E94FB0F08F481E00895E89409C0D9
:101F800097FB3EF490958095709561957F4F8F4FAC
:101F90009F4F9923A9F0F92F96E9BB279395F695C2
:101FA000879577956795B795F111F8CFFAF4BB0F40
:101FB00011F460FF1BC06F5F7F4F8F4F9F4F16C0A4
:101FC000882311F096E911C0772321F09EE8872F2E
:101FD000762F05C0662371F096E8862F70E060E0EA
:101FE0002AF09A95660F771F881FDAF7880F969563
:101FF000879597F90895990F0008550FAA0BE0E807
:10200000FEEF16161706E807F907C0F012161306BA
:10201000E407F50798F0621B730B840B950B39F4FA
:102020000A2661F0232B242B252B21F408950A2660
:1020300009F4A140A6958FEF811D811D089597F9A0
:102040009F6780E870E060E008959FEF80EC08955E
:1020500000240A9416161706180609060895002487
:102060000A9412161306140605060895092E039401
:10207000000C11F4882352F0BB0F40F4BF2B11F475
:1020800060FF04C06F5F7F4F8F4F9F4F089557FDD4
:102090009058440F551F59F05F3F71F04795880FD6
:1020A00097FB991F61F09F3F79F08795089512166D
:1020B00013061406551FF2CF4695F1DF08C0161619
:1020C00017061806991FF1CF8695710561050894CA
:1020D0000895E894BB2766277727CB0197F90895E1
:1020E000052E97FB1EF400940E94871057FD07D021
:1020F0000E94D91007FC03D04EF40C948710509521
:102100004095309521953F4F4F4F5F4F08959095E3
:102110008095709561957F4F8F4F9F4F08950E94D6
:10212000FB10A59F900DB49F900DA49F800D911D55
:1021300011240895B7FF0C948F100E948F10821BFA
:10214000930B08952F923F924F925F926F927F92DE
:102150008F929F92AF92BF92CF92DF92EF92FF92B7
:102160000F931F93CF93DF93CDB7DEB7CA1BDB0B63
:102170000FB6F894DEBF0FBECDBF09942A88398808
:1021800048885F846E847D848C849B84AA84B9840F
:10219000C884DF80EE80FD800C811B81AA81B9811B
:1021A000CE0FD11D0FB6F894DEBF0FBECDBFED012F
:1021B0000895A1E21A2EAA1BBB1BFD010DC0AA1F88
:1021C000BB1FEE1FFF1FA217B307E407F50720F0A0
:1021D000A21BB30BE40BF50B661F771F881F991F1B
:1021E0001A9469F760957095809590959B01AC0164
:1021F000BD01CF010895A29FB001B39FC001A39F6D
:10220000700D811D1124911DB29F700D811D11242F
:10221000911D08955058BB27AA270E9422110C94A3
:1022200036100E94281038F00E942F1020F039F448
:102230009F3F19F426F40C9425100EF4E095E7FB6B
:102240000C941F10E92F0E94471058F3BA17620729
:1022500073078407950720F079F4A6F50C946910AC
:102260000EF4E0950B2EBA2FA02D0B01B9019001B1
:102270000C01CA01A0011124FF27591B99F0593FF5
:1022800050F4503E68F11A16F040A22F232F342F3D
:102290004427585FF3CF469537952795A795F0408B
:1022A0005395C9F77EF41F16BA0B620B730B840BA0
:1022B000BAF09150A1F0FF0FBB1F661F771F881F58
:1022C000C2F70EC0BA0F621F731F841F48F48795B0
:1022D00077956795B795F7959E3F08F0B0CF9395A2
:1022E000880F08F09927EE0F9795879508950E941B
:1022F0008B110C9436100E942F1058F00E94281059
:1023000040F029F45F3F29F00C941F1051110C94F8
:102310006A100C9425100E94471068F39923B1F3BA
:10232000552391F3951B550BBB27AA2762177307FB
:10233000840738F09F5F5F4F220F331F441FAA1F8F
:10234000A9F335D00E2E3AF0E0E832D0915050404B
:10235000E695001CCAF72BD0FE2F29D0660F771FF9
:10236000881FBB1F261737074807AB07B0E809F0DF
:10237000BB0B802DBF01FF2793585F4F3AF09E3F64
:10238000510578F00C941F100C946A105F3FE4F331
:10239000983ED4F3869577956795B795F7959F5FA7
:1023A000C9F7880F911D9695879597F90895E1E0F3
:1023B000660F771F881FBB1F621773078407BA0752
:1023C00020F0621B730B840BBA0BEE1F88F7E095AD
:1023D00008950E94F0116894B1110C946A10089548
:1023E0000E944F1088F09F5798F0B92F9927B75146
:1023F000B0F0E1F0660F771F881F991F1AF0BA95A9
:10240000C9F714C0B13091F00E946910B1E008958D
:102410000C946910672F782F8827B85F39F0B93F7F
:10242000CCF3869577956795B395D9F73EF490955B
:102430008095709561957F4F8F4F9F4F08950E94B3
:10244000FB0F08F48FEF0895991B79E004C0991FE2
:10245000961708F0961B881F7A95C9F780950895FE
:10246000EE0FFF1F0590F491E02D09940F931F9339
:10247000CF93DF938230910510F482E090E0E091F9
:10248000CD02F091CE0230E020E0B0E0A0E0309745
:1024900099F42115310509F44AC0281B390B243061
:1024A0003105D8F58A819B816115710589F1FB01A0
:1024B00093838283FE0111C0408151810281138187
:1024C00048175907E0F04817590799F4109761F039
:1024D00012960C93129713961C933296CF01DF91AC
:1024E000CF911F910F9108950093CD021093CE02CA
:1024F000F4CF2115310551F04217530738F0A901E7
:10250000DB019A01BD01DF01F801C1CFEF01F9CF75
:102510009093CE028093CD02CDCFFE01E20FF31F48
:10252000819391932250310939832883D7CF209109
:10253000CB023091CC02232B41F420910301309146
:1025400004013093CC022093CB0220910101309101
:1025500002012115310541F42DB73EB74091050127
:1025600050910601241B350BE091CB02F091CC0277
:10257000E217F307A0F42E1B3F0B2817390778F05A
:10258000AC014E5F5F4F2417350748F04E0F5F1FB9
:102590005093CC024093CB02819391939FCFF0E074
:1025A000E0E09CCFCF93DF930097E9F0FC013297F6
:1025B00013821282A091CD02B091CE02ED0130E0E3
:1025C00020E01097A1F420813181820F931F209188
:1025D000CB023091CC022817390709F061C0F09383
:1025E000CC02E093CB02DF91CF910895EA01CE17A0
:1025F000DF07E8F54A815B819E0141155105B1F77E
:10260000E901FB83EA8349915991C40FD51FEC1767
:10261000FD0761F4808191810296840F951FE90185
:1026200099838883828193819B838A83F0E0E0E0B1
:1026300012968D919C9113970097B9F52D913C912D
:102640001197CD010296820F931F2091CB023091FA
:10265000CC022817390739F6309751F51092CE027F
:102660001092CD02B093CC02A093CB02BCCFD38307
:10267000C28340815181840F951FC817D90761F427
:102680004E5F5F4F88819981480F591F5183408366
:102690008A819B81938382832115310509F0B0CF14
:1026A000F093CE02E093CD029ECFFD01DC01C0CFBE
:1026B00013821282D7CFB0E0A0E0E1E6F3E10C9400
:1026C000A4108C01009751F4CB010E9436128C01AA
:1026D000C801CDB7DEB7E0E10C94C010FC01E60FF5
:1026E000F71F9C0122503109E217F30708F49DC03F
:1026F000D901CD91DC911197C617D70798F0C53055
:10270000D10530F3CE0104978617970708F3C61B4F
:10271000D70B2297C193D1936D937C93CF010E94E5
:10272000D212D6CF5B01AC1ABD0A4C018C0E9D1E95
:10273000A091CD02B091CE02512C412CF12CE12C74
:10274000109731F58091CB029091CC0288159905B4
:1027500009F05CC04616570608F058C08091010188
:1027600090910201009741F48DB79EB74091050109
:1027700050910601841B950BE817F90708F055C026
:10278000F093CC02E093CB02F90171836083A0CF78
:102790008D919C91119712966C90129713967C9044
:1027A0001397A815B90559F56C0142E0C40ED11C68
:1027B000CA14DB0420F1AC014A195B09DA01129654
:1027C000159780F06282738251834083D9016D93A3
:1027D0007C93E114F10471F0D7011396FC93EE930E
:1027E000129776CF22968C0F9D1FF90191838083DB
:1027F000F301EFCFF093CE02E093CD0269CF4816FC
:10280000590608F42C017D01D3019ACFCB010E9417
:1028100036127C01009749F0AE01B8010E941814ED
:10282000C8010E94D212870153CF10E000E050CFC0
:10283000FB01DC0102C001900D9241505040D8F7DD
:102840000895FB01DC0101900D920020E1F708954D
:10285000FB01DC014150504030F08D910190801916
:1028600019F40020B9F7881B990B0895FB015191C9
:102870005523A9F0BF01DC014D9145174111E1F746
:1028800059F4CD010190002049F04D9140154111BE
:10289000C9F3FB014111EFCF81E090E0019708956A
:1028A000F894FFCF010000CF028000000000006814
:1028B000028801B501B5022602C40118020D0A0002
:1028C00043757272656E7420706F736974696F6E90
:1028D0003A20002D2D2D2D2D2D2D2D2D2D2D2D2D55
:1028E0002D2D2D2D2D2D2D2D2D2D2D2D2D2D2D2D18
:1028F0002D2D2D2D2D2D2D004D6F76696E67207499
:102900006F3A20583A0020593A0053746570733A70
:10291000200050656E2073746174653A2000446530
:102920006C746120583A20002044656C7461205911
:102930003A2000526174696F3A200058206F757414
:10294000206F6620626F756E64730059206F757416
:10295000206F6620626F756E6473005374617274C9
:10296000696E672073657175656E63650052656396
:1029700065697665643A205B00085D0020637572C6
:1029800072656E7420706F736974696F6E20002CAD
:0C2990000047303100590058005A000088
:107E0000112484B714BE81FFF0D085E080938100F7
:107E100082E08093C00088E18093C10086E0809377
:107E2000C20080E18093C4008EE0C9D0259A86E02C
:107E300020E33CEF91E0309385002093840096BBD3
:107E4000B09BFECF1D9AA8958150A9F7CC24DD24C4
:107E500088248394B5E0AB2EA1E19A2EF3E0BF2EE7
:107E6000A2D0813461F49FD0082FAFD0023811F036
:107E7000013811F484E001C083E08DD089C08234E0
:107E800011F484E103C0853419F485E0A6D080C0E4
:107E9000853579F488D0E82EFF2485D0082F10E0AE
:107EA000102F00270E291F29000F111F8ED06801E7
:107EB0006FC0863521F484E090D080E0DECF843638
:107EC00009F040C070D06FD0082F6DD080E0C81688
:107ED00080E7D80618F4F601B7BEE895C0E0D1E017
:107EE00062D089930C17E1F7F0E0CF16F0E7DF06D8
:107EF00018F0F601B7BEE89568D007B600FCFDCFD4
:107F0000A601A0E0B1E02C9130E011968C91119780
:107F100090E0982F8827822B932B1296FA010C0160
:107F200087BEE89511244E5F5F4FF1E0A038BF0790
:107F300051F7F601A7BEE89507B600FCFDCF97BE46
:107F4000E89526C08437B1F42ED02DD0F82E2BD052
:107F50003CD0F601EF2C8F010F5F1F4F84911BD097
:107F6000EA94F801C1F70894C11CD11CFA94CF0C13
:107F7000D11C0EC0853739F428D08EE10CD085E9AC
:107F80000AD08FE07ACF813511F488E018D01DD067
:107F900080E101D065CF982F8091C00085FFFCCF94
:107FA0009093C60008958091C00087FFFCCF809118
:107FB000C00084FD01C0A8958091C6000895E0E648
:107FC000F0E098E1908380830895EDDF803219F02E
:107FD00088E0F5DFFFCF84E1DECF1F93182FE3DFCA
:107FE0001150E9F7F2DF1F91089580E0E8DFEE27F6
:047FF000FF270994CA
:027FFE00040479
:00000001FF
